{
  "transactions": [
    {
      "hash": "0x0e962c1c3a296ded5a0084a7ff43af5f2365cebc7be920cb8408ba4c7d7edfcb",
      "transactionType": "CALL",
      "contractName": null,
      "contractAddress": "0x60FDA2923de9e9ce238Aa9AF27Ef6C7F57c70A2b",
      "function": "topUpBalance(uint256)",
      "arguments": [
        "10000000000000000000"
      ],
      "transaction": {
        "type": "0x02",
        "from": "0x0a8a4723754ae6da563c066a6e1ff073ac272e4f",
        "to": "0x60fda2923de9e9ce238aa9af27ef6c7f57c70a2b",
        "gas": "0x2a530",
        "value": "0x0",
        "data": "0xa635392d0000000000000000000000000000000000000000000000008ac7230489e80000",
        "nonce": "0x6",
        "accessList": []
      },
      "additionalContracts": [],
      "isFixedGasLimit": false
    }
  ],
  "receipts": [
    {
      "transactionHash": "0x0e962c1c3a296ded5a0084a7ff43af5f2365cebc7be920cb8408ba4c7d7edfcb",
      "transactionIndex": "0xd",
      "blockHash": "0x9fa0a795cfcc0ea30696b8fa8147ae56f6da34266d3566d44408ce3ca2e46c2b",
      "blockNumber": "0x1f716a6",
      "from": "0x0A8A4723754Ae6Da563c066A6e1fF073AC272E4F",
      "to": "0x60FDA2923de9e9ce238Aa9AF27Ef6C7F57c70A2b",
      "cumulativeGasUsed": "0xd0ce6",
      "gasUsed": "0x1ea46",
      "contractAddress": null,
      "logs": [
        {
          "address": "0x6B467dA2DBde4af9D9c128ECF58B53C8f9463e72",
          "topics": [
            "0x4c8a9c748e976c17c2eb2c2bc50da76eac9cd90ff529f0fe900e0c10a179f031",
            "0x0000000000000000000000000000000000000000000000000000000000000001",
            "0xa265f1b5d96b6ba84334dcd015ac34de154c609dbda9272e156c714a80719907"
          ],
          "data": "0x00000000000000000000000060fda2923de9e9ce238aa9af27ef6c7f57c70a2b000000000000000000000000000000000000000000000000000000000000000000000000000000000000000000000000000000000000000000000000000000800000000000000000000000000000000000000000000000000000000000000000000000000000000000000000000000000000000000000000000000000000018412aa3caf000000000000000000000000f5ab9bf279284fb8e3de1c3bf0b0b4a6fb0bb538000000000000000000000000af204776c7245bf4147c2612bf6e5972ee483701000000000000000000000000cb444e90d8198415266c6a2724b7900fb12fc56e00000000000000000000000031c745d40e82b2b1ebded7f57672aa635b5bc06800000000000000000000000031c745d40e82b2b1ebded7f57672aa635b5bc0680000000000000000000000000000000000000000000000008ac7230489e8000000000000000000000000000000000000000000000000000000000000000000000000000000000000000000000000000000000000000000000000000000000000000000000000000000000000000000000000000000000000000000000000014000000000000000000000000000000000000000000000000000000000000001600000000000000000000000000000000000000000000000000000000000000000000000000000000000000000000000000000000000000000000000000000000000000000000000000000000000000000000000000000000000000000",
          "blockHash": "0x9fa0a795cfcc0ea30696b8fa8147ae56f6da34266d3566d44408ce3ca2e46c2b",
          "blockNumber": "0x1f716a6",
          "transactionHash": "0x0e962c1c3a296ded5a0084a7ff43af5f2365cebc7be920cb8408ba4c7d7edfcb",
          "transactionIndex": "0xd",
          "logIndex": "0x57",
          "removed": false
        }
      ],
      "status": "0x1",
      "logsBloom": "0x00000000000000000000000000000000002000000000000000000000000000000000000000000000000040000000000000000000000000000000000000040000000080000000000000200000000000000008000000040000000000000000000000000000000000000000000000000000000000000000000000000000000000000000000000000000000000000000000000000000000000000000000000000000000000000000000000000000000000000000000000000000000000000008000000000000000000000000000000000000080000000000000000008000000040000001000000000000000000000000000000000000000000000000000000000000",
      "type": "0x2",
      "effectiveGasPrice": "0xb2d05e08"
    }
  ],
  "libraries": [],
  "pending": [],
  "returns": {},
  "timestamp": 1710650417,
  "chain": 100,
  "commit": "8567dc2"
}